:020000040800F2
:100000009007002089010008D522000881200008FF
:10001000D122000845020008692400080000000001
:10002000000000000000000000000000DD220008C9
:10003000D902000800000000D9220008E1220008CF
:10004000A3010008A3010008A3010008A301000800
:10005000A3010008A3010008A3010008A3010008F0
:10006000A3010008A3010008A3010008A3010008E0
:10007000A3010008A3010008A3010008A3010008D0
:10008000A3010008A3010008A3010008A3010008C0
:10009000A3010008A3010008A3010008A3010008B0
:1000A000A3010008A3010008A3010008A3010008A0
:1000B000A3010008A3010008E9220008A301000829
:1000C000A3010008A3010008A3010008A301000880
:1000D000A30100085D240008A3010008A301000893
:1000E000A3010008A3010008A301000800F002F822
:1000F00000F03AF80AA090E8000C82448344AAF188
:100100000107DA4501D100F02FF8AFF2090EBAE885
:100110000F0013F0010F18BFFB1A43F0010318473B
:10012000342C0000542C0000103A24BF78C878C149
:10013000FAD8520724BF30C830C144BF04680C60ED
:10014000704700000023002400250026103A28BF35
:1001500078C1FBD8520728BF30C148BF0B60704739
:100160001FB51FBD10B510BD00F031F81146FFF7E7
:10017000F7FF02F07BF900F04FF803B4FFF7F2FF4E
:1001800003BC00F057F800000948804709480047C1
:10019000FEE7FEE7FEE7FEE7FEE7FEE7FEE7FEE737
:1001A000FEE7FEE704480549054A064B7047000094
:1001B000E5220008ED0000089001002090070020D3
:1001C00090030020900300207047704770477546E9
:1001D00000F02CF8AE4605006946534620F00700B3
:1001E000854618B020B5FFF7DDFFBDE820404FF091
:1001F00000064FF000074FF000084FF0000BAC4630
:10020000ACE8C009ACE8C009ACE8C009ACE8C0097A
:1002100021F007018D46704710B50446AFF300800A
:100220002046BDE81040FFF7A8BF00000048704717
:100230001000002001491820ABBEFEE72600020096
:1002400070470000FEE70000B0B50D46044600F020
:10025000E7F92178042935D8DFE801F004060E1A01
:10026000200000BF4DBB04E061686278411A9142F2
:100270001CD20020B0BD00BF6168A0EB0101A160ED
:1002800025B3E06881420ED3032020700220B0BD68
:100290004DB90421606000202170B0BD61686278B2
:1002A000411A914208D20020B0BD00BF55B10221D1
:1002B000A06000202170B0BD25B101216060002048
:1002C0002170B0BD00202070B0BD00BF042160606F
:1002D00001202170B0BD000070470000EFF31080D6
:1002E00072B600BFFEE70000014690F82100022828
:1002F00016D10868D1E90FC3026822F00E0202602D
:10030000026822F001020260012000FA03F2CCF838
:10031000042081F821000020002281F8202070476D
:10032000042088630120002281F82020704700000B
:1003300080B590F82110022924D10268116821F0BB
:100340000E0111602F211368C4F202018A4240F2AB
:100350000401C4F2020123F00103136016DD30230F
:10036000C4F202039A421DD04423C4F202039A420B
:100370001CD05823C4F202039A421DD14FF480339B
:1003800022E000BF04218163012080BD0823C4F264
:1003900002039A420ED01C23C4F202039A420BD1EC
:1003A000102311E04FF480730EE000BF4FF4805330
:1003B0000AE000BF012307E001F1680C4FF08073F1
:1003C000624508BF4FF480130B60012180F82110B3
:1003D000426B002180F820100AB1904700210846A6
:1003E00080BD00002DE9F04F82B041F20042C4F21E
:1003F00001020E680423904208BF0323002E0093DD
:1004000000F0F68040F2004C4FF6FF7E0022C4F26E
:10041000010C0124C1F2100E4FF0000A4FF0000948
:1004200047E000BF012502F00C040F27A7402BEA8C
:10043000070705FA04F43C4343F82640D1F804B01A
:1004400040F20C455FEACB23DCF8083054BF23EAC6
:10045000080343EA0803C4F20105CCF808302B680E
:100460005FEA8B2454BF23EA080343EA08032B60A6
:100470005FEA8B34DCF8043054BF23EA080343EA14
:1004800008035FEACB34CCF80430DCF800304FF0DE
:10049000010454BF23EA080343EA0803CCF8003000
:1004A0000E680AF1010A36FA0AF302F1040200F0BA
:1004B0009F8004FA0AF816EA080FF1D04B687345DA
:1004C00012DC122B56D8DFE803F0350B45495555A1
:1004D00055555555555555555555554D510000BF18
:1004E000D1F80C9046E000BF4FF6FF75C1F2210530
:1004F000AB420FDC0025C1F21105AB421AD000253A
:10050000C1F21205AB4215D00025C1F22105AB4264
:1005100010D02FE00025C1F22205AB420AD0002501
:10052000C1F23105AB4205D00025C1F23205AB4224
:1005300020D100BF8B684BB1012B14BFC0F81480D1
:10054000C0F810804FF0080914E000BF4FF0040914
:1005500010E000BFCB6803F108090BE04FF0000981
:1005600008E000BFCB6803F1040903E0CB6803F1A6
:100570000C0900BF13460546BAF1080F24BF203B03
:1005800004352E680F279F40BE4309FA03F3334317
:100590002B60CB79DB067FF583AF41F21804C4F200
:1005A000020423684FEA9A0643F00103236023689C
:1005B00040F6000403F001030193019BACF57E7348
:1005C00053F826B0C4F20104A0420FD040F6004414
:1005D000C4F20104A0423FF425AF41F20004C4F28A
:1005E0000104009DA04208BF02251CE700251AE770
:1005F00002B0BDE8F08F00008068084018BF0120FD
:1006000070470000C26802EA0103914341EA0341D6
:1006100001617047002A08BF0904016170470000AA
:1006200040F28810C2F200000068704740F20000FB
:1006300040F28811C2F20000C2F2000100780A689C
:10064000104408607047000080B542F20000C4F218
:100650000200016841F010010160032000F08AF8F7
:100660000F2000F005F800F027F8002080BD000002
:1006700070B540F20006C2F2000640F2080132787E
:10068000C2F200014FF47A730968B3FBF2F2044638
:10069000B1FBF2F1084600F05FFB0F2C4FF00105B3
:1006A00008D838B94FF0FF3021460022002500F06D
:1006B00035F87460284670BD82B041F21800C4F26B
:1006C00002000168022241F001010160016801F0AD
:1006D000010101910199416841F0805141604068F8
:1006E00000F08050009000980420C4F201000168DE
:1006F00062F31A61016002B070470000002848BF31
:10070000704700F01F01012202FA01F14EF20012BF
:100710004009CEF2000242F82010704710B54EF6A4
:100720000C5CCEF2000CDCF80030C3F3022E8EF02D
:100730000704042C28BF0424BEF103034FF0FF3E3E
:100740000EFA04F438BF0023A14399400EFA03F3D4
:100750009A43114300F00F02043A624409010C323B
:1007600000F16043B0F1FF3FC8BF03F56442117070
:1007700010BD00004EF60C51CEF200010A684FF693
:10078000FF031A4060F30A2242F0806040F0FD70DF
:10079000086070472DE9F04381B0002800F08580A3
:1007A00042F20008C4F202080446D8F800000D46E0
:1007B00000F0070088420CD2D8F8000020F00700B3
:1007C0002843C8F80000D8F8000000F00700A8424D
:1007D0006BD1206841F204098107C4F2020917D5E0
:1007E000410705D5D9F8001041F4E061C9F80010BF
:1007F000010705D5D9F8001041F46051C9F800107F
:10080000D9F80010A26821F0F0011143C9F80010D6
:10081000C00741D1D8F8000000F00700A8420CD969
:10082000D8F8000020F007002843C8F80000D8F8E6
:10083000000000F00700A84237D12068410707D523
:10084000D9F80010E26821F4E0611143C9F8001002
:10085000000708D5D9F80000216920F4605040EA6B
:10086000C100C9F80000D9F8002002F00C000828E7
:1008700041F20020C0F27A0050D142F64453C2F354
:100880008341C0F60003595CD2033BD440F600100C
:10089000C0F23D00484341E0606802280AD00128C8
:1008A0002AD159F8041C890308D4012001B0BDE8FD
:1008B000F08300BF59F8041C8901F6D5D9F800105F
:1008C00021F003010843C9F80000FFF7A9FE06461E
:1008D00041F28837D9F80000616800F00C00B0EBF5
:1008E000810F97D0FFF79CFE801BB842F2D90320FE
:1008F00001B0BDE8F08300BF59F8041C8907D4D5C6
:10090000DCE700BFD9F8002042F64253C2F3404270
:10091000C0F600039A5C4843B0FBF2F0D9F800102F
:1009200042F62A52C1F30311C0F60002515C40F2B4
:10093000080220FA01F140F20400C2F2000000684F
:10094000C2F200021160FFF793FE002001B0BDE883
:10095000F083000040F2080041F20401C2F20000FE
:10096000C4F202010068096842F63A52C1F302215A
:10097000C0F60002515CC8407047000040F2080019
:1009800041F20401C2F20000C4F2020100680968E9
:1009900042F63A52C1F3C221C0F60002515CC8408F
:1009A000704700002DE9F04182B0002868D004466D
:1009B000007841F20006C007C4F2020625D0706834
:1009C00000F00C0004281BD0706800F00C00082810
:1009D00002D17068C00313D46068002800F06881F9
:1009E000B0F5A02F00F07C81B0F5803F00F07C8155
:1009F000306820F480303060306820F4802076E168
:100A00003068800301D56068D0B32078800718D59E
:100A1000706810F00C0F07D0706800F00C00082808
:100A20006ED17068C0036BD43068800702D520692E
:100A3000012825D13068616920F0F80040EAC10042
:100A40003060207800071FD42078400732D4E56951
:100A500095B1706800F00C00082840F08F80012DDF
:100A60000ED07068216A00F480328A4208D1616A2F
:100A700000F47010884203D1002002B0BDE8F0817C
:100A8000012002B0BDE8F081A069002862D00020FA
:100A9000C4F242200121C0F88014FFF7C1FD0546D1
:100AA000706A800700F18C80FFF7BAFD401B0228B6
:100AB000F6D92AE1F06910F0805808D1F06940F0C9
:100AC0008050F061F06900F080500090009847F28B
:100AD0000007C4F200073868C00529D4386840F41C
:100AE00080703860FFF79CFD054600BF3868C00580
:100AF0001ED4FFF795FD401B6428F7D905E100BF20
:100B00002069002840F20000C4F2422000F08280F8
:100B100001210160FFF784FD054600BF30688007B2
:100B20003FF588AFFFF77CFD401B0228F6D9ECE0CB
:100B3000E068002800F08080052800F097800128F8
:100B400000F09880306A20F001003062306A20F0B6
:100B5000040092E00020C4F242200021C0F880147A
:100B6000FFF75EFD054600BF706A80077FF56CAF3A
:100B7000FFF756FD401B0228F6D9C6E00027C4F255
:100B8000422700203866FFF74BFD022D05460BD1AA
:100B90003068800140F1BE80FFF742FD401B022813
:100BA0004FF00300F4D968E7306880017FF564AF47
:100BB000FFF736FD401B02284FF00300F4D95CE735
:100BC00040F20800C2F20000006844F6D351C1F2BE
:100BD0006201A0FB0101480A019000BF00BF01981B
:100BE000411E002801913FF42FAF00BF0198411E24
:100BF000002801913FF428AF00BF0198411E002852
:100C000001913FF421AF00BF0198411E00280191DE
:100C1000E4D119E700210160FFF702FD054600BF9E
:100C2000306880077FF50DAFFFF7FAFC401B022804
:100C30004FF00300F4D920E7306A20F00100306261
:100C4000306A20F004003062FFF7EAFC054641F20A
:100C5000883700BF306A800720D5FFF7E1FC401BD2
:100C6000B8424FF00300F5D907E700BF306A40F003
:100C700004003062306A40F001003062FFF7D0FCBF
:100C8000054641F2883700BF306A800706D4FFF777
:100C9000C7FC401BB842F7D937E000BFB8F1000FDE
:100CA0007FF4D5AEF06920F08050F061CFE600BF50
:100CB000306820F480303060306820F4802030606C
:100CC000FFF7AEFC054600BF306880037FF59DAEA0
:100CD000FFF7A6FC401B64284FF00300F4D9CCE6D4
:100CE000306840F480203060306840F480303060FC
:100CF000FFF796FC054600BF306880033FF585AEE0
:100D0000FFF78EFC401B6428F6D9032002B0BDE833
:100D1000F08100BF206AB0F5803F05D17168A268FC
:100D200021F40031114371607168626A21F4741119
:100D300010430843706001203866FFF771FC0446D9
:100D4000306880013FF598AEFFF76AFC001B02286F
:100D50004FF00300F4D990E6411E0020B0EB116F74
:100D60001CBF012070474EF21002CEF2000251600B
:100D70004EF62351CEF20001F0230B700721906054
:100D800011607047704700007047000010B590F880
:100D90003C20012A4FF0020233D080F83D20026847
:100DA000D2F804E0D2F808C00C682EF07003234398
:100DB00040F2FF74C4F20004A24253600ADCB2F1B4
:100DC000804F13D040F20043C4F200039A420DD08A
:100DD00011E000BF42F60043C4F201039A4205D07D
:100DE00040F60003C4F200039A4204D149682CF093
:100DF0008003194391600121002280F83D1080F8A2
:100E00003C20104610BD0000002804BF01207047A0
:100E100010B5044690F83D0028B9002084F83C0045
:100E2000204600F06FF8022084F83D00206840F270
:100E3000FF730268C4F2000342F6004C9842C4F209
:100E4000010C15DCB0F1804F1AD040F20041C4F221
:100E50000001884214D0984218DCB0F1804F1DD0B8
:100E600040F20041C4F20001884217D01AE000BFEE
:100E7000604505D040F60001C4F200018842EAD185
:100E8000A16822F070020A439842E6DD604505D071
:100E900040F60001C4F20001884203D1216922F426
:100EA00040720A43A36922F08001D4F804E0E268AA
:100EB000194360450160C262C0F828E002D161694F
:100EC000CCF83010012141610269D20703D00269D8
:100ED00022F001020261002084F8461084F83E10DE
:100EE00084F83F1084F8401084F8411084F84210D0
:100EF00084F8431084F8441084F8451084F83D10B9
:100F000010BD000080B582B0006840F60001C4F258
:100F10000001884212D0B0F1804F0CD141F21C0088
:100F2000C4F20200016841F001010160006800F0B4
:100F300001000190019802B080BD00BF41F21C0089
:100F4000C4F202000168002241F00401016000685F
:100F5000002100F00400009000981E20FFF7DEFB47
:100F60001E2002B0BDE88040FFF7C8BB90F83D10DE
:100F700001291CBF01207047022180F83D10006844
:100F800040F2FF72C168C4F20002904241F00101D8
:100F9000C16009DCB0F1804F12D040F20041C4F2D0
:100FA000000188420CD012E042F60041C4F2010177
:100FB000884205D040F60001C4F20001884206D103
:100FC000816801F00701062904BF0020704701680D
:100FD00041F00101016000207047000080B590F8E9
:100FE0003C20012A4FF0020200F0C28080F83D2030
:100FF000D0F800C04FF67772DCF8083023EA02021E
:10100000CCF808200B684F2B28DC1F2B44DD202B4D
:1010100045D0302B43D0402B40F0AC80D1F804E0D9
:10102000C968DCF82030DCF8202022F00102CCF87E
:101030002020DCF8182022F0F00242EA011123F00F
:101040000A0242EA0E02CCF81810CCF82020DCF894
:10105000081041F0470121F0300180E06F2B27DDBF
:10106000B3F5005F48D0B3F5805F7AD0702B40F0C5
:101070008180D1E901E3C968DCF8082043EA0E0366
:1010800022F47F4243EA01211143CCF80810DCF836
:10109000081041F0770162E00BB1102B6AD1DCF847
:1010A000081021F07001194341F0070157E000BF1B
:1010B000502B35D0602B5DD1D1F804E0C968DCF845
:1010C0002030DCF8202022F01002CCF82020DCF8C0
:1010D000182022F4704242EA013123F0A00242EAD1
:1010E0000E12CCF81810CCF82020DCF8081041F0D3
:1010F000670121F0100132E0D1E901E3C968DCF8B1
:10110000082043EA0E0322F47F4243EA01211143FF
:10111000CCF80810DCF8081041F480411FE000BF53
:10112000D1F804E0C968DCF82030DCF8202022F097
:101130000102CCF82020DCF8182022F0F00242EA6C
:10114000011123F00A0242EA0E02CCF81810CCF882
:101150002020DCF8081041F0570121F02001CCF8E4
:1011600008100022012180F83D10002180F83C1079
:10117000104680BD0122F5E77047000070B50446B7
:101180000068C5680669B10716D515F0020113D0CD
:101190006FF002010161012121778069800703D08E
:1011A0002046FFF7E9FF05E0204600F08FF82046D3
:1011B00000F010FA00202077700719D515F0040010
:1011C00016D020686FF00401016102212177806947
:1011D00010F4407F04D02046FFF7CEFF06E000BFAA
:1011E000204600F073F8204600F0F4F90020207744
:1011F000300717D515F0080014D020686FF00801EB
:10120000016104212177C069800703D02046FFF7E0
:10121000B3FF05E0204600F059F8204600F0DAF967
:1012200000202077F00619D515F0100016D02068A0
:101230006FF01001016108212177C06910F4407F2F
:1012400004D02046FFF798FF06E000BF204600F0DC
:101250003DF8204600F0BEF900202077F00718BFC7
:1012600015F0010002D1300609D412E020686FF0B9
:1012700001010161204600F079FA300609D515F028
:10128000800006D020686FF0800101612046FFF7E2
:1012900079FD700609D515F0400006D020686FF082
:1012A00040010161204600F0AFFAB00658BF70BDA2
:1012B00015F0200008D021686FF0200220460A6156
:1012C000BDE87040FFF760BD70BD000070470000D2
:1012D0002DE9F04390F83C30012B04BF0220BDE81B
:1012E000F0834FEAB202032A3CD8DFE802F003435E
:1012F0007FB900BF036842F600461D6A1A6AC4F24D
:10130000010622F001021A621A465C6852F818CFF0
:10131000B3428E68D1F800E025F0020545EA0605E3
:101320000CD1CE68D1E9057824F4407425F00C0581
:1013300026F004063C43354344EA08042CF07307C6
:1013400047EA0E075C609F614F6809695F631D6231
:101350009F6947F008079F619F6927F004079F6115
:10136000AEE000BF0121002280F83C200846BDE825
:10137000F08300BF036842F600461D6A1A6AC4F291
:10138000010622F010021A621A46D3F804C052F87D
:10139000184FB3428E68D1F800E025F0200545EAE9
:1013A00006150FD1CE68D1E905986FF0400707EA1E
:1013B00006162CF4406725F0C00547EA8907354337
:1013C00047EA880C24F4E64444EA0E27C3F804C034
:1013D0009F614F6809699F631D629F6947F40067B9
:1013E0009F619F6927F480679F6168E0036842F608
:1013F00000461D6A1A6AC4F2010622F480721A625B
:101400001A46D3F804C052F81CEFB3428E680C6839
:1014100025F4007545EA06250FD1CE68D1E9059877
:10142000360240F2FF47BE432CF4405725F4406596
:1014300047EA0917354347EA081C2EF0730727438C
:10144000C3F804C0DF614F680969DF631D62DF69AB
:1014500047F00807DF61DF6927F00407DF612FE04D
:10146000036842F60047D3F820C01A6AC4F20107A5
:1014700022F480521A621A465C6852F81C5FD1F856
:1014800000E08E68BB4204D14F6924F4804444EAF2
:1014900087142CF4005747EA063725F4E64646EA57
:1014A0000E265C60DE614E6809691E641F62DF699A
:1014B00047F40067DF61DF6927F48067DF610902B5
:1014C0001368194311600021002280F83C2008466F
:1014D000BDE8F083002804BF0120704710B5044622
:1014E00090F83D0028B9002084F83C00204600F028
:1014F0006FF8022084F83D00206840F2FF73026814
:10150000C4F2000342F6004C9842C4F2010C15DC10
:10151000B0F1804F1AD040F20041C4F2000188427D
:1015200014D0984218DCB0F1804F1DD040F2004139
:10153000C4F20001884217D01AE000BF604505D010
:1015400040F60001C4F200018842EAD1A16822F00D
:1015500070020A439842E6DD604505D040F600017E
:10156000C4F20001884203D1216922F440720A4387
:10157000A36922F08001D4F804E0E26819436045D1
:101580000160C262C0F828E002D16169CCF8301075
:10159000012141610269D20703D0026922F00102F0
:1015A0000261002084F8461084F83E1084F83F1051
:1015B00084F8401084F8411084F8421084F84310F5
:1015C00084F8441084F8451084F83D1010BD0000E4
:1015D000704700007047000041B1082910D004296D
:1015E00014BF00F1410200F13F020BE090F83E20F1
:1015F000012A1CBF01207047022280F83E2013E020
:1016000000F140021278012A1CBF0120704702221B
:10161000082907D0042914BF80F8412080F83F2012
:1016200002E000BF80F84020006801F01F010122A5
:10163000036A8A4023EA02010162036A42F64441D6
:10164000C4F201011A43A1F14403984202620FD08F
:1016500040F2FF71C4F20001884213DCB0F1804F08
:101660001CD040F20041C4F20001884216D01CE0B8
:101670000A6842F400420A6040F2FF71C4F20001BD
:101680008842EBDD42F60041C4F20101884205D0F8
:1016900040F60001C4F20001884206D1816801F0E1
:1016A0000701062904BF00207047016841F00101CD
:1016B000016000207047000080B5026801F01F0C37
:1016C000012303FA0CFE136A42F6444C23EA0E038C
:1016D000C4F2010C1362D2F820E0ACF144039A4248
:1016E000C2F820E013D15CF824EC41F211131EEA99
:1016F000030F0CD1D2F820E040F244431EEA030F5E
:1017000005D1DCF8003023F40043CCF80030D2F8E7
:1017100020C041F211131CEA030F06D1D2F820C0F9
:1017200040F244431CEA030F14D0082918D00429BE
:101730000AD000294FF0010114BF80F8411080F851
:101740003E10002080BD00BF012180F83F10002026
:1017500080BD00BF136823F0010313600829E6D1A0
:10176000012180F84010002080BD0000F0B581B05C
:1017700040F2F801C2F20001884243D140F2700603
:10178000C2F20006307801283CD1B068347901F00B
:1017900067F9ACB142F2924244F62413C9F24922ED
:1017A000CBF6C27300F072FF00F03EFF002104464A
:1017B000B060002701F08DF9D8B9002417E000BF10
:1017C00041F2467244F2D153C7F25D42C3F6B77399
:1017D00000F05CFF00F028FF0025C4F2C825294670
:1017E0000446B06001F08AF918B901272C46B460AC
:1017F0003771204601F0CAF940F2B001C2F200018F
:101800000968486301B0F0BD7047000070470000F0
:1018100070470000B0B582B0044600680168C36834
:10182000426901F02F05202D03F0200506D12DB1CE
:10183000204602B0BDE8B04000F090BD5FEA017CF8
:101840001EBF02F0010E03F4907212EB0E0255D18E
:10185000226B012A05D111F0100218BF13F01002FB
:1018600036D10A0622D513F080021FD094F8411019
:10187000212941D1A168B1F5805F03D121690029F7
:1018800000F07282216A4A1C226209784160E18C70
:1018900001390A04E1842FD1C16821F08001C160BF
:1018A000C16841F04001C16002B0B0BD490623D516
:1018B00013F0400120D0C16821F04001C160202117
:1018C000204684F8411002B0BDE8B04000F0D6BB1D
:1018D00000210191016801914168019101994169DB
:1018E000490600F18F80A18DE28DE38D002B1CBF96
:1018F000891A5FEA01420CD102B0B0BDCA0718BF15
:1019000013F4807240F038814A0700F13B8140E1D6
:10191000206850E8030F226820F4907042E8030327
:10192000DBB1206850E8030F226820F4907042E891
:10193000030393B1206850E8030F226820F49070ED
:1019400042E803034BB1206850E8030F226820F4FB
:10195000907042E80303002BDAD1206850E8050FAD
:10196000226820F0010042E80503DBB1206850E85E
:10197000050F226820F0010042E8050393B12068BA
:1019800050E8050F226820F0010042E805034BB142
:10199000206850E8050F226820F0010042E80503A6
:1019A000002BDAD1202084F8420000202063206838
:1019B00050E8030F226820F0100042E80303DBB177
:1019C000206850E8030F226820F0100042E803036B
:1019D00093B1206850E8030F226820F0100042E81D
:1019E00003034BB1206850E8030F226820F0100079
:1019F00042E80303002BDAD1022289B22046626357
:101A0000B4E000BFE16B0A68526893B2002B3FF468
:101A100073AFA58DAB42BFF46FAFE2858969202912
:101A200000F09D8050E8030F216820F4807041E8A9
:101A30000302EAB1206850E8030F216820F48070A7
:101A400041E80302A2B1206850E8030F216820F4A6
:101A5000807041E803025AB1206850E8030F216802
:101A600020F4807041E8030212B12068DAE700BF79
:101A7000206850E8050F216820F0010041E80502C8
:101A8000DAB1206850E8050F216820F0010041E834
:101A9000050292B1206850E8050F216820F001008E
:101AA00041E805024AB1206850E8050F216820F09E
:101AB000010041E80502002ADAD1206850E8050F4C
:101AC000216820F0400041E80502DAB1206850E8C2
:101AD000050F216820F0400041E8050292B120681E
:101AE00050E8050F216820F0400041E805024AB1A6
:101AF000206850E8050F216820F0400041E8050209
:101B0000002ADAD1202084F84200002020632068D7
:101B100050E8030F216820F0100041E80302DAB119
:101B2000206850E8030F216820F0100041E803020C
:101B300092B1206850E8030F216820F0100041E8BE
:101B400003024AB1206850E8030F216820F010001A
:101B500041E80302002ADAD1E06BFEF7C5FB022060
:101B60006063A08DE18D401A81B2204602B0BDE8CD
:101B7000B040FFF74BBE00BF626C42F001026264EE
:101B80004A0706D5BEF1000F03D0626C42F0020294
:101B900062648A0706D5BEF1000F03D0626C42F082
:101BA00004026264BCF1000F06D555EA0E0203D0B0
:101BB000626C42F008026264626C002A3FF49CAEE0
:101BC00011F0200118BF002D03D0204600F0C6FB05
:101BD00020684169626C01F0400102F00802891836
:101BE00000F0A28050E8030F216820F4907041E8D3
:101BF0000302C2B3206850E8030F216820F49070FC
:101C000041E803027AB3206850E8030F216820F40A
:101C1000907041E8030232B3206850E8030F216856
:101C200020F4907041E80302EAB12068DAE700BFCF
:101C3000206850E8050F216820F0010041E8050206
:101C4000DAB1206850E8050F216820F0010041E872
:101C5000050292B1206850E8050F216820F00100CC
:101C600041E805024AB1206850E8050F216820F0DC
:101C7000010041E80502002ADAD1206B012824D1B5
:101C8000206850E8030F216820F0100041E80302AB
:101C9000DAB1206850E8030F216820F0100041E815
:101CA000030292B1206850E8030F216820F0100071
:101CB00041E803024AB1206850E8030F216820F090
:101CC000100041E80302002ADAD1202084F8420003
:101CD000002020632068416949063FD550E8050F80
:101CE000216820F0400041E805022AB3206850E84E
:101CF000050F216820F0400041E80502E2B12068AC
:101D000050E8050F216820F0400041E805029AB133
:101D1000206850E8050F216820F0400041E80502E6
:101D200052B12068DAE700BF2046FFF771FD0020BE
:101D3000606402B0B0BD00BFE06B78B142F25131D7
:101D4000C0F600014163FEF7F3FA00283FF4D4AD7A
:101D5000E06B416B02B0BDE8B0400847204602B0DE
:101D6000BDE8B040FFF754BD216A31F8022B6FF394
:101D70005F22426021628AE5002804BF012070478B
:101D800010B5044690F8410028B9002084F84000BE
:101D9000204600F061F8242084F841002068D4E94E
:101DA0000212C36823F40053C360036923F4405351
:101DB0001A430261D4E904231143C268194341F272
:101DC0000C639A431143C1604169A26921F44071D7
:101DD000114343F60002C4F201029042416103D074
:101DE000FEF7B8FD02E000BFFEF7C8FD62681921EA
:101DF00048439100B0FBF1F048F21F51C5F2EB11DE
:101E0000A0FB01235A096FF0630302FB0300322396
:101E100003EB0010A0FB0101F02303EA511320683B
:101E200003EB0212C1F3431111448160016921F4F3
:101E300090410161416921F02A014161C16841F489
:101E40000051C16000202021606484F8411084F8B2
:101E50004210606310BD000070B586B040F600040B
:101E6000C4F20104006804F540510026884204963B
:101E700002D006B070BD00BF41F21800C4F20200EB
:101E8000016802AD41F480410160016801F48041C4
:101E900001910199016841F004010160006829463F
:101EA00000F00400019001984FF4007002900220AD
:101EB0000390032005902046FEF794FA4FF48060CB
:101EC000CDE90206204629460496FEF78BFA252026
:101ED00000210022FEF722FC2520FEF70FFC06B0B1
:101EE00070BD000090F84230202B1CBF02207047CC
:101EF00000294FF0010318BF002A01D1184670478E
:101F000000230363816222218285C285436480F8B5
:101F100042100169006819B1C16841F48071C16063
:101F20004169002341F001014161C16841F0200194
:101F3000C16018467047000070B540F24015C2F20B
:101F40000005A84218BF70BD40F27004C2F2000440
:101F5000207801286BD16078052866D8DFE800F08A
:101F6000040A12161A2000BF6079FA285FD10126F0
:101F70005CE000BF6079AF38B0FA80F040094600FD
:101F800054E000BF60790326A0714FE06079042619
:101F9000E0714BE060790026FB2808BF052645E08C
:101FA0006079BF2841D1A079022817D001283CD1FF
:101FB000E079002210B1012809D1012240F6004049
:101FC000C4F201004FF48051FEF724FB012295F882
:101FD0004100202829D1E2731EE000BFE07938B12A
:101FE0004000606304F1280000F088F91DE000BFA4
:101FF00004F1280000F07EF940F60040C4F2010030
:102000004FF4805100220026FEF704FB95F84100B2
:1020100020280BD10120E07340F2401004F10C01A4
:10202000C2F20000062200F00DF80026667040F2B1
:102030004010611DC2F200000122BDE87040FFF7B0
:1020400051BF0000034690F8410020281CBF022029
:10205000704700294FF0010018BF002A00D17047D7
:102060001962002021219A84DA84586483F841108F
:102070001968CA6842F08002CA6070477047000061
:10208000FEE7000040F60040C4F201004FF480512A
:10209000FEF7B8BA2DE9F04186B0002641F21800EB
:1020A0000596C4F20200016840F6004441F02001A8
:1020B00001600168C4F2010401F02001019101995D
:1020C0000168002241F00401016001684FF480586A
:1020D00001F0040101910199016841F008010160DA
:1020E00000684FF4805100F00800019001982046EC
:1020F000FEF790FA02AD012720462946CDE9027687
:102100000497FEF76FF90220059020462946CDE995
:1021100002870496FEF766F906B0BDE8F08100007C
:1021200010B594B040F2B0000021C2F200004FF0B0
:102130008042472363240E91CDE90C110991CDE92A
:102140000711CDE90511CDE90311CDE90111C0E970
:102150000023C0E9021401618161FEF755FE0028E9
:1021600018BFFEF7BBF84FF480500B9040F2B00060
:10217000C2F200000BA9FEF731FF002818BFFEF7DE
:10218000ADF840F2B000C2F20000FFF7A3F900285A
:1021900018BFFEF7A3F840F2B0000024C2F200001E
:1021A00008A9CDE90844FEF7F1FD002818BFFEF7A5
:1021B00095F86020CDE901040394059440F2B00441
:1021C000C2F2000401A920460022FFF781F800288E
:1021D00018BFFEF783F820680021B0F1804F1291FC
:1021E00002D014B010BD00BF41F21800C4F20200CA
:1021F000016841F004010160006810A900F00400CA
:102200000F900F980120109002201190139040F62B
:102210000000C4F20100FEF7E5F814B010BD0000A4
:1022200080B586B040F2F80040F600020021C2F20C
:102230000000C4F20002472340F2E73C0591CDE9DB
:102240000311CDE90011C0E90023C0E9021C0161BE
:102250008161FEF7D9FD002818BFFEF73FF84FF463
:102260008050029040F2F800C2F2000002A9FEF78E
:10227000B5FE002818BFFEF731F840F2F800C2F2B0
:1022800000006946FEF782FD002818BFFEF726F819
:1022900006B080BD80B540F2401043F60001C2F2A6
:1022A0000000C4F2010100234FF00C0C4FF4E132A6
:1022B00080E80E00C0E90333C0E905C3C361FFF73E
:1022C0005BFD002808BF80BDBDE88040FEF706B872
:1022D000FEE70000FEE700007047000070470000C6
:1022E000FEF7A4B97047000040F2F800C2F2000007
:1022F000FEF744BF002101757047000010B5044689
:10230000FEF78EF9A060002020610120207510BD2D
:10231000B0B50446007D38B1FEF782F90546D4E930
:102320000110281A884201D20020B0BD20688047E1
:10233000D4E90310A560421C00294FF0000022617F
:1023400008BFB0BD8A4222BF002020750120B0BD69
:10235000406A0021C185C184FFF75ABA81B090F864
:102360004210222920D18368B3F5805F08D101692A
:10237000002965D000F128010A6803685B680AE05B
:10238000014651F8282F13B90369002BF5D00368D3
:102390005B6803F07F0313700A6801320A60C18D25
:1023A00001390A04C18501D001B070470168CA68CB
:1023B00022F02002CA60CA6822F48072CA604A69A8
:1023C00022F001024A61202280F84220002242636A
:1023D000036B012B3ED1026351E8031F026821F019
:1023E000100142E803130168DBB151E8031F0268E2
:1023F00021F0100142E80313016893B151E8031F73
:10240000026821F0100142E8031301684BB151E862
:10241000031F026821F0100142E803130168002B3A
:10242000DAD10A68D20606D5002200920A68009224
:10243000496800910099818D01B0FFF7E7B900BFAD
:102440000168826A49686FF35F2122F8021B826289
:10245000A5E700BF01B0FFF76FBD000040F24010DC
:10246000C2F20000FFF7D6B9FEE7000092B0FEF717
:10247000EBF800240120CDE90D44CDE90B44089090
:102480000C904FF4E0104FF480310225119008A811
:10249000CDE90914CDE90F51FEF784FA20B1EFF32D
:1024A000108072B6FEE700BF0F20CDE903054FF4A0
:1024B0008060CDE9060403A802210594FEF76AF9BD
:1024C00020B1EFF3108072B6FEE700BF40F6004483
:1024D000C4F20104FFF7DEFDFFF722FEFFF7DAFE8C
:1024E000FFF79EFE40F2F800C2F20000FEF73EFD4C
:1024F00040F27005C2F2000542F285001422C0F6D7
:1025000000006A764FF4FA62C5E909204CF6FC70C7
:10251000A8810320A8734DF6FD70CAF6FA702861F1
:10252000012040F2401A192128754BF6FB70C2F2C7
:10253000000AE962E882691D50460122FFF7D2FCD9
:1025400040F20C0905F1120040F2B00B05F118063B
:10255000C2F20009019005F1280705F10C004FF0C7
:102560000008C2F2000B029002E000BF85F8028072
:1025700020460121FEF740F801463046FDF764FE93
:102580002978E87001290BD00029F1D10228EFD178
:102590000120287058460021FFF71EF8E8E700BF29
:1025A00001281BD002282CD1384685F80080FFF77F
:1025B000A1FE20464FF480510022FEF72BF8DBF8F5
:1025C0000000C5F8088085F80480C0F834805846BB
:1025D0000021FFF771F8012011E000BF9AF84100D7
:1025E00020280ED199F800000199687550460622FE
:1025F000FFF728FD99F80000013818BF012089F87D
:1026000000003846FFF784FE0128A870B0D19AF880
:1026100041002028AAD101200299E87350460622E1
:10262000FFF710FDA2E7000021F0004201F0004397
:10263000A2F16052B2F5801F28BFD2F17F6C0BD996
:102640005FEA001C43EAC20242EB507018BF7047B9
:1026500028BF20F001007047B2F5801FBCBF1846AC
:1026600070474FEA410C1CF5001F02D2084600F0EB
:1026700057BB70B500F0B2F800000089FFF7F6BF55
:102680004FF00040A0F580007047000010B591EABF
:10269000030F48BF83F0004300F1FC80841A71EB04
:1026A000030C05D2121943EB0C03001B61EB0C0168
:1026B0004FEA1154A4EB135CDFF81CE11EEA430F50
:1026C00018BF9EEA445F00F0748021EA045123EAB7
:1026D0000E0343F48013DCF1200E32D322FA0CFEF9
:1026E00010EB0E0023FA0CFE41EB0E01CCF1200E94
:1026F00003FA0EFE10EB0E00CCF1200E51F100019A
:10270000B1F5801F32D201EB045112FA0EF2BDE88E
:10271000104058BF7047401C38BF5FEA420218BFE4
:102720007047002814BF20F0010041F100014FEA7A
:10273000410313F5001F38BF7047A1F1C04100F0FD
:102740009BB8012A43EB0302ACF1200CDCF11F0E15
:1027500032BF4FF0000E23FA0CF310EB030041EBF5
:102760000451B4EB115FD0D0A1EB045101F58011FD
:10277000490801EB04515FEA30000ED350F100002C
:1027800038BF12FA0EFE08D1BDE81040C9E7401C60
:1027900038BF5FEA4202CAD1C3E7BDE810404FEA42
:1027A000410313F5001F38BF7047A1F1C04100F08D
:1027B00063B89EEA445F08D011EA5E0FBDE810409E
:1027C00004BF01F0004100207047BDE8104070B523
:1027D00000F004F864FBBE3E0000E0FF0EF1020EC4
:1027E0002EF0030E5EF8046B364205D4012A43EB4B
:1027F000030515F5001F12D8012841EB010C1CF54B
:10280000001F0CD80ED14FEAD17C0CEB4C0C0CF114
:10281000020C15F5001F08BF4CEBD37C04E04FF011
:10282000080C01E04FEAD37C0CEB4C0526FA05F6C8
:1028300006F00706B6F1040C06D20EEB860CBDE8D6
:1028400070404CF0010C6047DFE80CF0090B02020D
:102850004FF00041A1F500214FF0000070BD194676
:102860001046012851EB010418BFD4F5001484BFB1
:10287000002001F0004170BD0808A0F500114FEAEA
:102880003101704710B591EA030F48BF83F0004350
:102890003FF504AF841A71EB030C07D28CF0004CA7
:1028A000121943EB0C03001B61EB0C014FEA1154AE
:1028B000A4EB135CDFF8A4E11EEA430F18BF9EEA05
:1028C000445F00F0B48021EA045123EA6E035242CF
:1028D000C3EB6E0338BF5B1EDCF1200E25D322FA5A
:1028E0000CFE10EB0E0043FA0CFE41EB0E01CCF196
:1028F000200E03FA0EFE10EB0E00CCF1200E51F16B
:10290000000129D401EB045112FA0EF2BDE8104087
:1029100058BF7047401C1CBFB2F1004F70470028E1
:102920000CBF491C20F00100704712EB020E43EB74
:10293000030218BF4FF0010E4EEA4202ACF1200C28
:10294000DCF11E0E56D943FA0CFE10EB0E00CCF152
:102950001E0E51F1FF31D5D50EF1010E12FA0EFE09
:10296000404141EB010101EB445C5FEA5C5C10D942
:1029700001EB045110EBDE7038BFBEF1004FBDE833
:10298000104018BF704700280CBF491C20F0010000
:10299000704734D24FEAD42C24F4006411F50011AE
:1029A0001BD0B1FA81F20B3AA41AA41ED2F1200373
:1029B000914030FA03F31943904001EBCC7101EBE5
:1029C0000451002CBDE81040A8BF704701F1C04180
:1029D00001F000414FF000007047B0FA80F310FAA8
:1029E00003F102D1BDE810407047E41A173C4805D6
:1029F000C90AE2E701EB0451BDE8104070474910F5
:102A00004FEA300001EB0451BDE8104002E04FF006
:102A1000000170474A0008BF0042F8D0B2F5001F1D
:102A200028BF704701F000414FF0000070479EEA58
:102A3000445F07D011EA5E0FBDE8104004BF0021DB
:102A400000207047BDE8104070B5FFF7C7FE00BF1B
:102A500040DFF63E104683F0004170470000E0FF83
:102A600043004FEAD30C4FEA3C0C43401FBF4007E2
:102A70000CF1605113F0FE4F70471CF0006F03D152
:102A80000CF00041002070470CF0004343EA507006
:102A900040EACC0010B500F0FDF800BF0000009245
:102AA0004FEA0001FFF7E8BE4FF00041A1F5002119
:102AB0004FF00000704710B500F034F80CBF012053
:102AC000002010BD10B500F02DF814BF012000202B
:102AD00010BD10B500F076F88CBF0120002010BDAD
:102AE00010B500F06FF82CBF0120002010BD10B50C
:102AF00000F09CF894BF0120002010BD10B500F03C
:102B000095F834BF0120002010BD401058BFC0F11F
:102B10004040491058BFC1F140418142EFF300806D
:102B20007047000050EA010C00F113801CF5000F03
:102B300058BFBCF5000F01D48842704707D710F585
:102B4000000F58BF11F5000F15D488427047894215
:102B500070471CF5000F04D5BCF5000FF7D5814276
:102B600070474FF0807C1CEB400F38BF1CEB410FCF
:102B700001D28142704710B500F08CF892244900D0
:102B80004FF000504FF08051FFF7BFBF41000B0ED8
:102B9000D3F19E0208D950F400034FEA032323FA2D
:102BA00002F048BF4042704710B500F073F800BF14
:102BB00049922480002070476FF0004282EA200092
:102BC0007047000050EA010C00F113801CF5000F63
:102BD00058BFBCF5000F01D48842704707D710F5E5
:102BE000000F58BF11F5000F15D488427047894275
:102BF00070471CF5000F04D5BCF5000FF7D58142D6
:102C000070474FF0807C1CEB400F38BF1CEB410F2E
:102C100001D28142704710B500F03CF8922449007F
:102C20004FF080504FF00051FFF76FBF50EA010C9A
:102C300000F113801CF5000F58BFBCF5000F01D444
:102C40008842704707D710F5000F58BF11F5000FE5
:102C500015D488427047894270471CF5000F04D58F
:102C6000BCF5000FF7D5814270474FF0807C1CEB1C
:102C7000400F38BF1CEB410F01D28142704710B5A5
:102C800000F008F8922449004FF000504FF08051B6
:102C9000FFF73BBF0EF1020E2EF0030E5EF8044B61
:102CA000244204D44FEA4102B2F17F4F11D84FEAD7
:102CB0004003B3F17F4F0CD80ED14FEAD07C0CEB20
:102CC0004C0C0CF1020CB2F17F4F08BF4CEBD17CE5
:102CD00004E04FF0080C01E04FEAD17C0CEB4C0310
:102CE00024FA03F404F00704B4F1040C06D20EEB4A
:102CF000840CBDE810404CF0010C6047DFE80CF09C
:102D0000070802024FF00040A0F5800010BD084601
:102D1000420018BFD2F1807288BF00F0004010BDA1
:102D2000FF2141EAD050C0057047000000000000BC
:102D30000000010203040607080900000000010268
:102D40000304010202030405060708090A0B0C0D1F
:102D50000E0F1010782D0008000000201000000059
:102D600028010008882D00081000002080070000BE
:102D700044010008000000000100000010000000F5
:082D800000127A0001000000BE
:04000005080000ED02
:00000001FF
